{
  "contractName": "certi",
  "abi": [
    {
      "inputs": [],
      "stateMutability": "nonpayable",
      "type": "constructor"
    },
    {
      "inputs": [
        {
          "internalType": "string",
          "name": "",
          "type": "string"
        }
      ],
      "name": "certificateDetails",
      "outputs": [
        {
          "internalType": "string",
          "name": "courseName",
          "type": "string"
        },
        {
          "internalType": "string",
          "name": "cadndidateName",
          "type": "string"
        },
        {
          "internalType": "string",
          "name": "grade",
          "type": "string"
        },
        {
          "internalType": "string",
          "name": "date",
          "type": "string"
        }
      ],
      "stateMutability": "view",
      "type": "function",
      "constant": true
    },
    {
      "inputs": [
        {
          "internalType": "string",
          "name": "_certificateID",
          "type": "string"
        },
        {
          "internalType": "string",
          "name": "_courseName",
          "type": "string"
        },
        {
          "internalType": "string",
          "name": "_cadndidateName",
          "type": "string"
        },
        {
          "internalType": "string",
          "name": "_grade",
          "type": "string"
        },
        {
          "internalType": "string",
          "name": "_date",
          "type": "string"
        }
      ],
      "name": "newCertificate",
      "outputs": [],
      "stateMutability": "nonpayable",
      "type": "function"
    }
  ],
  "bytecode": "0x608060405234801561001057600080fd5b50336000806101000a81548173ffffffffffffffffffffffffffffffffffffffff021916908373ffffffffffffffffffffffffffffffffffffffff16021790555061098b806100606000396000f3fe608060405234801561001057600080fd5b50600436106100365760003560e01c80636fe5033c1461003b578063b7b5e1d41461006e575b600080fd5b61005560048036038101906100509190610546565b61008a565b604051610065949392919061071a565b60405180910390f35b61008860048036038101906100839190610587565b6102f0565b005b6001818051602081018201805184825260208301602085012081835280955050505050506000915090508060000180546100c39061085a565b80601f01602080910402602001604051908101604052809291908181526020018280546100ef9061085a565b801561013c5780601f106101115761010080835404028352916020019161013c565b820191906000526020600020905b81548152906001019060200180831161011f57829003601f168201915b5050505050908060010180546101519061085a565b80601f016020809104026020016040519081016040528092919081815260200182805461017d9061085a565b80156101ca5780601f1061019f576101008083540402835291602001916101ca565b820191906000526020600020905b8154815290600101906020018083116101ad57829003601f168201915b5050505050908060020180546101df9061085a565b80601f016020809104026020016040519081016040528092919081815260200182805461020b9061085a565b80156102585780601f1061022d57610100808354040283529160200191610258565b820191906000526020600020905b81548152906001019060200180831161023b57829003601f168201915b50505050509080600301805461026d9061085a565b80601f01602080910402602001604051908101604052809291908181526020018280546102999061085a565b80156102e65780601f106102bb576101008083540402835291602001916102e6565b820191906000526020600020905b8154815290600101906020018083116102c957829003601f168201915b5050505050905084565b60008054906101000a900473ffffffffffffffffffffffffffffffffffffffff1673ffffffffffffffffffffffffffffffffffffffff163373ffffffffffffffffffffffffffffffffffffffff161461037e576040517f08c379a00000000000000000000000000000000000000000000000000000000081526004016103759061077b565b60405180910390fd5b6040518060800160405280858152602001848152602001838152602001828152506001866040516103af9190610703565b908152602001604051809103902060008201518160000190805190602001906103d992919061043b565b5060208201518160010190805190602001906103f692919061043b565b50604082015181600201908051906020019061041392919061043b565b50606082015181600301908051906020019061043092919061043b565b509050505050505050565b8280546104479061085a565b90600052602060002090601f01602090048101928261046957600085556104b0565b82601f1061048257805160ff19168380011785556104b0565b828001600101855582156104b0579182015b828111156104af578251825591602001919060010190610494565b5b5090506104bd91906104c1565b5090565b5b808211156104da5760008160009055506001016104c2565b5090565b60006104f16104ec846107c0565b61079b565b90508281526020810184848401111561050957600080fd5b610514848285610818565b509392505050565b600082601f83011261052d57600080fd5b813561053d8482602086016104de565b91505092915050565b60006020828403121561055857600080fd5b600082013567ffffffffffffffff81111561057257600080fd5b61057e8482850161051c565b91505092915050565b600080600080600060a0868803121561059f57600080fd5b600086013567ffffffffffffffff8111156105b957600080fd5b6105c58882890161051c565b955050602086013567ffffffffffffffff8111156105e257600080fd5b6105ee8882890161051c565b945050604086013567ffffffffffffffff81111561060b57600080fd5b6106178882890161051c565b935050606086013567ffffffffffffffff81111561063457600080fd5b6106408882890161051c565b925050608086013567ffffffffffffffff81111561065d57600080fd5b6106698882890161051c565b9150509295509295909350565b6000610681826107f1565b61068b81856107fc565b935061069b818560208601610827565b6106a48161091b565b840191505092915050565b60006106ba826107f1565b6106c4818561080d565b93506106d4818560208601610827565b80840191505092915050565b60006106ed6015836107fc565b91506106f88261092c565b602082019050919050565b600061070f82846106af565b915081905092915050565b600060808201905081810360008301526107348187610676565b905081810360208301526107488186610676565b9050818103604083015261075c8185610676565b905081810360608301526107708184610676565b905095945050505050565b60006020820190508181036000830152610794816106e0565b9050919050565b60006107a56107b6565b90506107b1828261088c565b919050565b6000604051905090565b600067ffffffffffffffff8211156107db576107da6108ec565b5b6107e48261091b565b9050602081019050919050565b600081519050919050565b600082825260208201905092915050565b600081905092915050565b82818337600083830152505050565b60005b8381101561084557808201518184015260208101905061082a565b83811115610854576000848401525b50505050565b6000600282049050600182168061087257607f821691505b60208210811415610886576108856108bd565b5b50919050565b6108958261091b565b810181811067ffffffffffffffff821117156108b4576108b36108ec565b5b80604052505050565b7f4e487b7100000000000000000000000000000000000000000000000000000000600052602260045260246000fd5b7f4e487b7100000000000000000000000000000000000000000000000000000000600052604160045260246000fd5b6000601f19601f8301169050919050565b7f496e737566696369656e742070726976696c616765000000000000000000000060008201525056fea264697066735822122020781bb69d1b455053058b9724a086452ba7ba758e250e3fb08542cc4ff2e72964736f6c63430008010033",
  "immutableReferences": {},
  "source": "// SPDX-License-Identifier: MIT\npragma solidity >=0.4.22 <0.9.0;\n\ncontract certi {\n    \n  address admin;\n  \n  constructor() {\n    admin = msg.sender;    \n  }\n  \n  modifier onlyAdmin {\n      require(msg.sender == admin, \"Insuficient privilage\");\n      _;\n  }\n  \n  struct certificate {\n      string courseName;\n      string cadndidateName;\n      string grade;\n      string date;\n  }\n  \n  mapping (string => certificate) public certificateDetails;\n  \n  function newCertificate (\n      string memory _certificateID,\n      string memory _courseName,\n      string memory _cadndidateName,\n      string memory _grade,\n      string memory _date ) public onlyAdmin {\n          certificateDetails[_certificateID] = certificate(\n                                                    _courseName,\n                                                    _cadndidateName,\n                                                    _grade,\n                                                    _date);\n      }\n}",
  "sourcePath": "/home/sirius/Lab/thecertidapp/contracts/certi.sol",
  "compiler": {
    "name": "solc",
    "version": "0.8.1+commit.df193b15.Emscripten.clang"
  },
  "schemaVersion": "3.3.3",
  "updatedAt": "2021-02-09T09:21:51.440Z",
  "networkType": "ethereum",
  "devdoc": {
    "kind": "dev",
    "methods": {},
    "version": 1
  },
  "userdoc": {
    "kind": "user",
    "methods": {},
    "version": 1
  }
}